:100000000C9462000C948A000C948A000C948A0070
:100010000C948A000C948A000C948A000C948A0038
:100020000C948A000C948A000C948A000C948A0028
:100030000C948A000C948A000C948A000C948A0018
:100040000C9416060C948A000C94E4050C94BE05DE
:100050000C948A000C948A000C948A000C948A00F8
:100060000C9460060C948A00000000002400270015
:100070002A0000000000250028002B0000000008D6
:10008000000201000003040700000000000000005F
:1000900000000000230026002900040404040404D6
:1000A0000404020202020202030303030303010227
:1000B00004081020408001020408102001020408F6
:1000C00010207B0711241FBECFEFD8E0DEBFCDBFCD
:1000D00011E0A0E0B1E0EEE7F9E102C005900D9279
:1000E000A835B107D9F722E0A8E5B1E001C01D921B
:1000F000A238B207E1F710E0C2E6D0E004C02197D1
:10010000FE010E94B70CC136D107C9F70E94C8078B
:100110000C94BD0C0C940000CF92DF92EF92FF92F2
:10012000CF93DF93B0917602A0E08111AB2F809145
:10013000770290E0880F991FAC0140575F4FC09045
:100140007C02D0907D02E0907E02F0907F0230E051
:1001500020E0FA01C591D491E881B90190E080E0F6
:10016000EB23EA130AC02F5F3F4F6C157D058E0508
:100170009F0578F36FEF7FEFCB01DF91CF91FF9079
:10018000EF90DF90CF900895AF92BF92CF92DF9221
:10019000EF92FF920F931F93CF93DF936C017B013C
:1001A0008B01040F151FEB015E01AE18BF08C017CD
:1001B000D10759F06991D601ED91FC910190F08140
:1001C000E02DC6010995892B79F7C501DF91CF9103
:1001D0001F910F91FF90EF90DF90CF90BF90AF9065
:1001E0000895FC01538D448D252F30E0842F90E03D
:1001F000821B930B541710F0CF9608950197089522
:10020000FC01918D828D981761F0A28DAE0FBF2FEA
:10021000B11D5D968C91928D9F5F9F73928F90E040
:1002200008958FEF9FEF0895FC01918D828D9817AF
:1002300031F0828DE80FF11D858D90E008958FEFEC
:100240009FEF0895FC01918D228D892F90E0805CB5
:100250009F4F821B91098F739927089582ED91E03A
:100260000E94220121E0892B09F420E0822F0895C9
:1002700080E090E0892B29F00E942E0181110C94DE
:1002800000000895FC01A48DA80FB92FB11DA35A39
:10029000BF4F2C91848D90E001968F739927848FA6
:1002A000A689B7892C93A089B1898C9183708064C9
:1002B0008C93938D848D981306C00288F389E02D6A
:1002C00080818F7D80830895EF92FF920F931F931B
:1002D000CF93DF93EC0181E0888F9B8D8C8D9813F9
:1002E0001AC0E889F989808185FF15C09FB7F89405
:1002F000EE89FF896083E889F98980818370806451
:1003000080839FBF81E090E0DF91CF911F910F919B
:10031000FF90EF900895F62E0B8D10E00F5F1F4FAA
:100320000F731127E02E8C8D8E110CC00FB607FCB9
:10033000FACFE889F989808185FFF5CFCE010E9447
:100340004201F1CFEB8DEC0FFD2FF11DE35AFF4F72
:10035000F0829FB7F8940B8FEA89FB8980818062D5
:10036000CFCFCF93DF93EC01888D8823B9F0AA8992
:10037000BB89E889F9898C9185FD03C0808186FD60
:100380000DC00FB607FCF7CF8C9185FFF2CF8081AF
:1003900085FFEDCFCE010E944201E9CFDF91CF91E1
:1003A000089590E0FC01E458FF4F2491FC01E255D0
:1003B000FF4F3491FC01E656FF4FE491EE23C9F064
:1003C000222339F0233001F1A8F4213019F1223031
:1003D00029F1F0E0EE0FFF1FEE58FF4FA591B49109
:1003E0008FB7F894EC91611126C030953E233C9371
:1003F0008FBF08952730A9F02830C9F0243049F77D
:10040000809180008F7D03C0809180008F778093E2
:100410008000DFCF84B58F7784BDDBCF84B58F7D3F
:10042000FBCF8091B0008F778093B000D2CF8091C6
:10043000B0008F7DF9CF3E2BDACFCF93DF9390E0E2
:10044000FC01E255FF4F249186569F4FFC01849199
:100450008823D1F090E0880F991FFC01E859FF4FE5
:10046000A591B491FC01EE58FF4FC591D491623033
:1004700071F49FB7F8943C91822F809583238C93DD
:10048000E8812E2B28839FBFDF91CF9108958FB7EE
:10049000F894EC912E2B2C938FBFF6CF8E50806466
:1004A00080937C0080917A00806480937A008091B0
:1004B0007A0086FDFCCF80917800909179000895B4
:1004C0003FB7F8948091CA019091CB01A091CC01E3
:1004D000B091CD0126B5A89B05C02F3F19F001961C
:1004E000A11DB11D3FBFBA2FA92F982F8827BC018E
:1004F000CD01620F711D811D911D42E0660F771FB6
:10050000881F991F4A95D1F708958F929F92AF92B5
:10051000BF92CF92DF92EF92FF924B015C010E945B
:1005200060026B017C010E9460026C197D098E09DA
:100530009F09683E734081059105A8F321E0821A66
:100540009108A108B10888EEC80E83E0D81EE11C0E
:10055000F11C81149104A104B10429F7FF90EF90DC
:10056000DF90CF90BF90AF909F908F900895CF92E3
:10057000DF92EF92FF920F931F93CF93DF93CDB74C
:10058000DEB7C054D1400FB6F894DEBF0FBECDBF6A
:100590002FB7F8948091CE019091CF01A091D00116
:1005A000B091D1012FBF40917802509179026091B2
:1005B0007A0270917B028C019D01041B150B260BA6
:1005C000370BB901A801403D57406105710590F412
:1005D00080918002C05CDE4F0FB6F894DEBF0FBE84
:1005E000CDBFDF91CF911F910F91FF90EF90DF90E2
:1005F000CF9008958093780290937902A0937A0225
:10060000B0937B02109273021092720210927102E8
:100610001092700210926F0262E0809174020E9448
:100620001D0261E070E080E090E00E94850261E0E0
:10063000809174020E941D0260E0809174020E9409
:10064000D101809175028551823020F58BE291E1D4
:100650000197F1F762E0809174020E941D0280917F
:10066000810290E08230910538F0880F991F880F41
:10067000991F05970197F1F7F89480E00E948C008C
:100680006F3F7F4F8F4F9F4F61F41092800278949D
:1006900080E0A0CF64E170E080E090E00E948502FD
:1006A000D9CF81E00E948C006F3F7F4F8F4F9F4FCB
:1006B00061F38E010F5F1F4F6E018FEBC81A8EEF33
:1006C000D80A780180E00E948C00F7016083718372
:1006D0008283938381E00E948C00F7016483758399
:1006E00086839783F8E0EF0EF11CEC14FD0451F7BC
:1006F000789430E020E0F801C080D180E280F3807F
:100700004481558166817781FFEFCF16DF06EF06C2
:10071000FF0631F04F3F8FEF58076807780719F44D
:1007200010928002B5CFF90183E0F595E7958A959F
:10073000E1F7E159FD4F8081880FC416D506E60622
:10074000F70610F180832F5F3F4F085F1F4F28325D
:10075000310589F64091730220916F0280917002F9
:10076000280F3327331F80917102280F311D80918C
:100770007202820F932F911D99274817190681F64F
:1007800081E08093800226CF8160DCCF20917F01C1
:10079000260F3327331F21323105ECF42091A301BA
:1007A000FC0190E080E0243069F082E00895A0919F
:1007B0007F012191AC01415A5E4FA40FB52FB11DAD
:1007C0002C930196861798F380917F01680F6093B0
:1007D0007F0180E0089581E0089508958FEF9FEFF5
:1007E00008958FEF9FEF08958091580190E09195C3
:1007F000819591090895CF93DF93CB01EA01642F8E
:100800000E94C603CE01DF91CF910895CF93DF936D
:100810001F92CDB7DEB7698361E0CE0101960E94D9
:10082000C60381E090E00F90DF91CF91089590E0B2
:1008300080E00895FC0101900020E9F73197AF01B5
:10084000481B590BBC0182ED91E00C94C4008F92BF
:100850009F92AF92BF920F931F93CF93DF93CDB729
:10086000DEB7A1970FB6F894DEBF0FBECDBF19A2B9
:10087000423008F44AE08E010F5D1F4F842E912C08
:10088000B12CA12CA50194010E94950CE62FB90171
:10089000CA01EA30F4F4E05DD801EE938D01232B18
:1008A000242B252B79F790E080E0109719F0CD01EB
:1008B0000E941A04A1960FB6F894DEBF0FBECDBFFA
:1008C000DF91CF911F910F91BF90AF909F908F902C
:1008D0000895E95CE1CF0C941A044F925F926F92F5
:1008E0007F928F929F92AF92BF92CF92DF92EF92C0
:1008F000FF920F931F93CF936B017C01742EAC0179
:100900009B010E94900C882399F082E191E0CF91A5
:100910001F910F91FF90EF90DF90CF90BF90AF901D
:100920009F908F907F906F905F904F900C941A04DF
:1009300046015701E894B7F82FEF3FEF4FE75FE725
:10094000C501B4010E94900C81110DC02FEF3FEF43
:100950004FE75FE7C501B4010E94C60A18161CF4F0
:1009600086E191E0D4CF2FEF3FEF4FE75FE4C7017F
:10097000B6010E941E0C18161CF48AE191E0C7CF44
:100980002FEF3FEF4FE75FECC701B6010E94C60AA9
:1009900087FDF3CF20E030E0A901C701B6010E9436
:1009A000C60A10E000E087FF0AC06DE282ED91E028
:1009B0000E9464018C01F7FAF094F7F8F094C0E01B
:1009C00060E070E080E09FE37C1641F020E030E0E2
:1009D00040E251E40E94CB0ACF5FF6CFA701960117
:1009E0000E945A0A2B013C010E943D0B4B015C0105
:1009F0004AE00E9427047C01E00EF11ECC23C1F1E5
:100A0000C501B4010E946C0B9B01AC01C301B20192
:100A10000E94590A4B015C016EE282ED91E00E9456
:100A20006401E80EF91EC15018F120E030E040E208
:100A300051E4C501B4010E94230C2B013C010E942A
:100A40003D0B4B01B12CA12C4AE0C501B4010E9421
:100A50002704E80EF91EC501B4010E946C0B9B012E
:100A6000AC01C301B2010E94590A4B015C01DBCF0A
:100A7000C701CF911F910F91FF90EF90DF90CF9022
:100A8000BF90AF909F908F907F906F905F904F90AE
:100A900008951F93CF93DF9385ED8093BC008091E1
:100AA0005B0190915C01A0915D01B0915E010796A0
:100AB000A11DB11D23E0B695A795979587952A9519
:100AC000D1F72091BC0024FD03C01092A30152C0B5
:100AD00040915B0150915C0160915D0170915E01FC
:100AE000452B462B472B69F30097A105B10541F033
:100AF00025E32A95F1F700000197A109B109E1CF9B
:100B000080915A01C1E0C0935901882399F1D09195
:100B1000B8001091BA008091BC008A7B8093BC0021
:100B200060E082E10E94D10160E083E10E94D10196
:100B30001092A301C093A5011092A40161E082E18B
:100B40000E94D10161E083E10E94D1018091B9004E
:100B50008E7F8093B9008091B9008D7F8093B9001A
:100B600088E48093B80085E48093BC001093BA00B9
:100B7000D093B800DF91CF911F9108951F920F92EB
:100B80000FB60F9211242F933F934F935F936F9360
:100B90007F938F939F93AF93BF93EF93FF9382EDD8
:100BA00091E00E944201FF91EF91BF91AF919F911F
:100BB0008F917F916F915F914F913F912F910F9006
:100BC0000FBE0F901F9018951F920F920FB60F92A5
:100BD00011242F938F939F93EF93FF93E091E20162
:100BE000F091E3018081E091E801F091E90182FD5B
:100BF0001BC090818091EB018F5F8F732091EC017E
:100C0000821741F0E091EB01F0E0EE52FE4F958F3C
:100C10008093EB01FF91EF919F918F912F910F9016
:100C20000FBE0F901F9018958081F4CF1F920F92E6
:100C30000FB60F9211242F933F938F939F93AF93EF
:100C4000BF938091CE019091CF01A091D001B0913E
:100C5000D1013091C90123E0230F2D3758F50196BA
:100C6000A11DB11D2093C9018093CE019093CF01A6
:100C7000A093D001B093D1018091CA019091CB0192
:100C8000A091CC01B091CD010196A11DB11D809321
:100C9000CA019093CB01A093CC01B093CD01BF9139
:100CA000AF919F918F913F912F910F900FBE0F9019
:100CB0001F90189526E8230F0296A11DB11DD2CFD3
:100CC0001F920F920FB60F9211242F933F934F93C1
:100CD0005F936F937F938F939F93AF93BF93EF93A4
:100CE000FF938091B900887F803609F44AC0F0F5FF
:100CF000883209F4A5C018F5803109F499C0B8F418
:100D0000882309F4F5C0883009F492C0FF91EF916F
:100D1000BF91AF919F918F917F916F915F914F9113
:100D20003F912F910F900FBE0F901F901895883113
:100D300009F486C0803251F78093A20114C0803438
:100D400009F49BC040F48033B9F38833F9F68093FB
:100D5000A20185ECAEC0803509F483C0883509F462
:100D600094C0883499F60E944905D0CF883909F497
:100D70008AC038F5883729F050F4883611F080376A
:100D800029F683E08093A3011092A10155C0883811
:100D900009F479C0803919F0803809F0B7CF809113
:100DA000A101803208F06FC0E091A10181E08E0FB7
:100DB0008093A1018091BB00F0E0EF57FE4F80834C
:100DC0003BC0803B39F0D0F4803A09F477C0883AD0
:100DD00009F09CCF84E08093A301109280011092CF
:100DE0007F01F0E0E0E0099580917F0181110FC063
:100DF00081E080937F0110925F0109C0803C09F47B
:100E0000A8CF883C09F4A5CF883B09F07FCFE091BB
:100E1000800181E08E0F80938001F0E0E15AFE4F67
:100E200080818093BB009091800180917F0129C0D7
:100E30008091C8018093BB0085EC8093BC0066CF95
:100E40009091C7018091C601981758F5E091C701AC
:100E500081E08E0F8093C701F0E0EA55FE4F80815C
:100E6000E9CFE091C70181E08E0F8093C7018091A7
:100E7000BB00F0E0EA55FE4F80839091C70180915E
:100E8000C6019817C8F285E8D8CFE091C70181E084
:100E90008E0F8093C7018091BB00F0E0EA55FE4FB2
:100EA00080838091A50181115ECF81E08093A401B0
:100EB00084EA8093BC001092A30128CF85EC809334
:100EC000BC001092A3018091A101803230F4E09126
:100ED000A101F0E0EF57FE4F10826091A10170E098
:100EE00081E891E0F0E0E0E009951092A1010ECFD9
:100EF0001092A20138CFE2EDF1E01382128288EE67
:100F000093E0A0E0B0E084839583A683B78384E078
:100F100091E09183808385EC90E09587848784ECD1
:100F200090E09787868780EC90E0918B808B81ECB6
:100F300090E0938B828B82EC90E0958B848B86EC97
:100F400090E0978B868B118E128E138E148EAFE6E7
:100F5000B2E08EE015968C9315978BE016968C93E5
:100F60001697ECEBF0E0E4911796EC931797E8EA0C
:100F7000F0E0E4911896EC93189740E85EE360E0A7
:100F800070E01D964D935D936D937C9350970895FB
:100F9000CF93DF93CDB7DEB72A970FB6F894DEBFB5
:100FA0000FBECDBF789484B5826084BD84B5816066
:100FB00084BD85B5826085BD85B5816085BD809124
:100FC0006E00816080936E0010928100809181009C
:100FD0008260809381008091810081608093810094
:100FE000809180008160809380008091B100846056
:100FF0008093B1008091B00081608093B0008091B7
:101000007A00846080937A0080917A008260809375
:101010007A0080917A00816080937A0080917A00D2
:10102000806880937A001092C10062E0809174021F
:101030000E941D022FB7F8948091CE019091CF01AC
:10104000A091D001B091D1012FBF805D9740A1093F
:10105000B1098093780290937902A0937A02B093B9
:101060007B0287E380938102E091E201F091E3014A
:1010700082E08083E091DE01F091DF011082E09157
:10108000E001F091E1018FEC80831092EA01E091A0
:10109000E601F091E70186E08083E091E401F091C0
:1010A000E501808180618083E091E401F091E501B8
:1010B000808188608083E091E401F091E501808186
:1010C00080688083E091E401F091E50180818F7D6B
:1010D00080838EE191E00E946B0486E291E00E94A1
:1010E0006B048AE291E00E946B0486E291E00E9428
:1010F0006B0482E391E00E946B0486E291E00E941F
:101100006B0488E391E00E946B0486E291E00E9408
:101110006B0484E491E00E946B0486E291E00E94FB
:101120006B0488E491E00E941A0481E591E00E943A
:101130001A0461E082E00E941D0200E010E061E01C
:1011400082E00E94D10188EE93E09A838983C12CCA
:10115000D12C76018FE00E944E02BC01990F880BC2
:10116000990B0E946E0B9B01AC01C701B6010E9456
:101170005A0A6B017C0161E070E080E090E00E941F
:10118000850289819A8101979A838983892B11F736
:1011900020E030EC4FE754E4C701B6010E94CB0ACF
:1011A00020E030E04AE754E40E94CB0A20E030E03F
:1011B00040EA50E40E94230C9B01AC0160E070E027
:1011C00080E290E40E94590A2DEC3CEC4CEC5DE38B
:1011D0000E94CB0A2B013C0180E10E944E02BC011F
:1011E000990F880B990B0E946E0B20E030E040EACB
:1011F00050E40E94230C20E030EC4FE754E40E94BE
:10120000CB0A20E030E040E450E40E94230C6983E4
:101210007A838B839C839B01AC01C301B2010E9442
:10122000230C6D837E838F8398870E94B702882367
:1012300041F0809175028C3009F46AC048F48B301B
:1012400031F1C12CD12C90ECE92E9FE7F92E4BC047
:1012500085518230B0F7209171022987622F70E0AA
:10126000762F662766277F7780917202682B90E041
:1012700080E00E946C0B2DEC3CEC4CEC5DE30E949A
:10128000230C6B017C01898587FF2DC063C06091B1
:10129000710270E090E080E00E946C0B6B017C01B9
:1012A00090917202998797FF0AC0A701960160E0AA
:1012B00070E080E89FEB0E94590A6B017C01298550
:1012C0002F70622F70E090E080E00E946E0B2DEC9A
:1012D0003CEC4CEC5DE30E94230CA70196010E94BC
:1012E0005A0A6B017C010E94B702882351F0809159
:1012F00075028B3030F08D3090F18551823008F4DA
:10130000C6C0812C912C80ECA82E8FE7B82E45C04A
:10131000809171028987682F70E090E080E00E94E0
:101320006C0B6B017C01609172026F7070E090E059
:1013300080E00E946E0B2DEC3CEC4CEC5DE30E94D7
:10134000230CA70196010E945A0A6B017C01998522
:1013500097FFC9CFF7FAF094F7F8F094C4CF6091F3
:10136000700270E090E080E00E946E0B2DEC3CEC8F
:101370004CEC5DE30E94230C4B015C0160916F0219
:1013800070E090E080E00E946E0B9B01AC01C50113
:10139000B4010E945A0A4B015C0181E10E944E0295
:1013A0009A87898743E069817A818B819C810E9439
:1013B0006D0486E291E00E946B0487E291E00E9456
:1013C0006B0443E0C301B2010E946D0486E291E028
:1013D0000E946B0487E291E00E946B0442E06D8101
:1013E0007E818F8198850E946D0486E291E00E9443
:1013F0006B0484E591E00E946B0442E0C701B601F2
:101400000E946D0486E291E00E946B0484E591E005
:101410000E946B0489859A856C01990FEE08FF087C
:101420004AE0C701B601F7FE0DC06DE282ED91E022
:101430000E94640166277727CB016C197D098E090C
:101440009F094AE00E94270486E291E00E946B0413
:1014500084E591E00E946B0442E0C501B4010E9462
:101460006D0481E591E00E941A046AEF70E080E06B
:1014700090E00E9485020115110509F460CE0E94DA
:101480002E01882309F45BCE0E94000058CE6091A3
:101490006F027091700276276727762790E080E0D0
:1014A0000E946C0B2DEC3CEC4CEC5DE30E94230C99
:1014B00072CF5058BB27AA270E94710A0C94E40BE4
:1014C0000E94D60B38F00E94DD0B20F039F49F3FCC
:1014D00019F426F40C94D30B0EF4E095E7FB0C946E
:1014E000CD0BE92F0E94F50B58F3BA17620773076B
:1014F0008407950720F079F4A6F50C94170C0EF4E8
:10150000E0950B2EBA2FA02D0B01B90190010C0113
:10151000CA01A0011124FF27591B99F0593F50F42B
:10152000503E68F11A16F040A22F232F342F442783
:10153000585FF3CF469537952795A795F04053957B
:10154000C9F77EF41F16BA0B620B730B840BBAF04B
:101550009150A1F0FF0FBB1F661F771F881FC2F7B6
:101560000EC0BA0F621F731F841F48F487957795CA
:101570006795B795F7959E3F08F0B0CF9395880F84
:1015800008F09927EE0F9795879508950E94A90B6B
:1015900008F481E008950E94DF0A0C94E40B0E9495
:1015A000DD0B58F00E94D60B40F029F45F3F29F084
:1015B0000C94CD0B51110C94180C0C94D30B0E946D
:1015C000F50B68F39923B1F3552391F3951B550B54
:1015D000BB27AA2762177307840738F09F5F5F4F06
:1015E000220F331F441FAA1FA9F335D00E2E3AF045
:1015F000E0E832D091505040E695001CCAF72BD05D
:10160000FE2F29D0660F771F881FBB1F26173707AD
:101610004807AB07B0E809F0BB0B802DBF01FF27DF
:1016200093585F4F3AF09E3F510578F00C94CD0BE4
:101630000C94180C5F3FE4F3983ED4F386957795AD
:101640006795B795F7959F5FC9F7880F911D969598
:10165000879597F90895E1E0660F771F881FBB1FF4
:10166000621773078407BA0720F0621B730B840BA1
:10167000BA0BEE1F88F7E09508950E94FD0B88F0E5
:101680009F5798F0B92F9927B751B0F0E1F0660F46
:10169000771F881F991F1AF0BA95C9F714C0B13087
:1016A00091F00E94170CB1E008950C94170C672F6D
:1016B000782F8827B85F39F0B93FCCF386957795B6
:1016C0006795B395D9F73EF490958095709561959F
:1016D0007F4F8F4F9F4F0895E89409C097FB3EF4CA
:1016E00090958095709561957F4F8F4F9F4F99236F
:1016F000A9F0F92F96E9BB279395F69587957795ED
:101700006795B795F111F8CFFAF4BB0F11F460FFAC
:101710001BC06F5F7F4F8F4F9F4F16C0882311F004
:1017200096E911C0772321F09EE8872F762F05C018
:10173000662371F096E8862F70E060E02AF09A95B3
:10174000660F771F881FDAF7880F9695879597F9A8
:101750000895990F0008550FAA0BE0E8FEEF161642
:101760001706E807F907C0F012161306E407F50795
:1017700098F0621B730B840B950B39F40A2661F009
:10178000232B242B252B21F408950A2609F4A140AC
:10179000A6958FEF811D811D089597F99F6780E8B9
:1017A00070E060E008959FEF80EC089500240A94B3
:1017B0001616170618060906089500240A9412162C
:1017C0001306140605060895092E0394000C11F45F
:1017D000882352F0BB0F40F4BF2B11F460FF04C00C
:1017E0006F5F7F4F8F4F9F4F089557FD9058440F65
:1017F000551F59F05F3F71F04795880F97FB991F70
:1018000061F09F3F79F0879508951216130614062C
:10181000551FF2CF4695F1DF08C0161617061806B9
:10182000991FF1CF86957105610508940895E89494
:10183000BB2766277727CB0197F908950E94A90B4C
:1018400008F48FEF08950E94360C0C94E40B0E946C
:10185000D60B38F00E94DD0B20F0952311F00C948C
:10186000CD0B0C94D30B11240C94180C0E94F50B87
:1018700070F3959FC1F3950F50E0551F629FF001E3
:10188000729FBB27F00DB11D639FAA27F00DB11DFC
:10189000AA1F649F6627B00DA11D661F829F222785
:1018A000B00DA11D621F739FB00DA11D621F839F0C
:1018B000A00D611D221F749F3327A00D611D231FE2
:1018C000849F600D211D822F762F6A2F11249F5730
:1018D00050409AF0F1F088234AF0EE0FFF1FBB1F33
:1018E000661F771F881F91505040A9F79E3F5105F2
:1018F00080F00C94CD0B0C94180C5F3FE4F3983EF1
:10190000D4F3869577956795B795F795E7959F5F9B
:10191000C1F7FE2B880F911D9695879597F908952D
:101920000E94A90B880B990B0895A1E21A2EAA1BFD
:10193000BB1BFD010DC0AA1FBB1FEE1FFF1FA2177F
:10194000B307E407F50720F0A21BB30BE40BF50B7C
:10195000661F771F881F991F1A9469F76095709505
:10196000809590959B01AC01BD01CF010895EE0FCC
:0E197000FF1F0590F491E02D0994F894FFCF2D
:10197E00000000006401C400F100B1012201000169
:10198E0014016E616E00696E66006F766600566FAA
:10199E006C74616765000920200043757272656E74
:1019AE007400506F7765720074656D706572617446
:1019BE00757265004C44520068756D69646974797E
:0819CE00000D0A00202020009A
:00000001FF
